{
  "contractName": "Ballot",
  "abi": [
    {
      "inputs": [
        {
          "internalType": "string[]",
          "name": "candidateNames",
          "type": "string[]"
        }
      ],
      "stateMutability": "nonpayable",
      "type": "constructor"
    },
    {
      "anonymous": false,
      "inputs": [
        {
          "indexed": false,
          "internalType": "string",
          "name": "name",
          "type": "string"
        }
      ],
      "name": "CandidateAdded",
      "type": "event"
    },
    {
      "anonymous": false,
      "inputs": [],
      "name": "VoteEnded",
      "type": "event"
    },
    {
      "anonymous": false,
      "inputs": [],
      "name": "VoteStarted",
      "type": "event"
    },
    {
      "anonymous": false,
      "inputs": [
        {
          "indexed": true,
          "internalType": "address",
          "name": "voter",
          "type": "address"
        },
        {
          "indexed": false,
          "internalType": "uint256",
          "name": "candidate",
          "type": "uint256"
        }
      ],
      "name": "Voted",
      "type": "event"
    },
    {
      "inputs": [
        {
          "internalType": "uint256",
          "name": "",
          "type": "uint256"
        }
      ],
      "name": "candidates",
      "outputs": [
        {
          "internalType": "string",
          "name": "name",
          "type": "string"
        },
        {
          "internalType": "uint256",
          "name": "voteCount",
          "type": "uint256"
        }
      ],
      "stateMutability": "view",
      "type": "function",
      "constant": true
    },
    {
      "inputs": [],
      "name": "chairperson",
      "outputs": [
        {
          "internalType": "address",
          "name": "",
          "type": "address"
        }
      ],
      "stateMutability": "view",
      "type": "function",
      "constant": true
    },
    {
      "inputs": [],
      "name": "state",
      "outputs": [
        {
          "internalType": "enum Ballot.State",
          "name": "",
          "type": "uint8"
        }
      ],
      "stateMutability": "view",
      "type": "function",
      "constant": true
    },
    {
      "inputs": [
        {
          "internalType": "address",
          "name": "",
          "type": "address"
        }
      ],
      "name": "voters",
      "outputs": [
        {
          "internalType": "uint256",
          "name": "weight",
          "type": "uint256"
        },
        {
          "internalType": "bool",
          "name": "voted",
          "type": "bool"
        },
        {
          "internalType": "uint256",
          "name": "vote",
          "type": "uint256"
        }
      ],
      "stateMutability": "view",
      "type": "function",
      "constant": true
    },
    {
      "inputs": [
        {
          "internalType": "string[]",
          "name": "candidateNames",
          "type": "string[]"
        }
      ],
      "name": "addCandidates",
      "outputs": [],
      "stateMutability": "nonpayable",
      "type": "function"
    },
    {
      "inputs": [],
      "name": "startVote",
      "outputs": [],
      "stateMutability": "nonpayable",
      "type": "function"
    },
    {
      "inputs": [],
      "name": "endVote",
      "outputs": [],
      "stateMutability": "nonpayable",
      "type": "function"
    },
    {
      "inputs": [
        {
          "internalType": "uint256",
          "name": "candidateIndex",
          "type": "uint256"
        }
      ],
      "name": "vote",
      "outputs": [],
      "stateMutability": "nonpayable",
      "type": "function"
    }
  ],
  "bytecode": "0x60806040523480156200001157600080fd5b5060405162001b0b38038062001b0b8339818101604052810190620000379190620003bd565b336000806101000a81548173ffffffffffffffffffffffffffffffffffffffff021916908373ffffffffffffffffffffffffffffffffffffffff16021790555060018060008060009054906101000a900473ffffffffffffffffffffffffffffffffffffffff1673ffffffffffffffffffffffffffffffffffffffff1673ffffffffffffffffffffffffffffffffffffffff168152602001908152602001600020600001819055506000600360006101000a81548160ff021916908360028111156200012c577f4e487b7100000000000000000000000000000000000000000000000000000000600052602160045260246000fd5b021790555060005b815181101562000201576002604051806040016040528084848151811062000185577f4e487b7100000000000000000000000000000000000000000000000000000000600052603260045260246000fd5b60200260200101518152602001600081525090806001815401808255809150506001900390600052602060002090600202016000909190919091506000820151816000019080519060200190620001de92919062000209565b506020820151816001015550508080620001f8906200050e565b91505062000134565b5050620005e9565b8280546200021790620004d8565b90600052602060002090601f0160209004810192826200023b576000855562000287565b82601f106200025657805160ff191683800117855562000287565b8280016001018555821562000287579182015b828111156200028657825182559160200191906001019062000269565b5b5090506200029691906200029a565b5090565b5b80821115620002b55760008160009055506001016200029b565b5090565b6000620002d0620002ca8462000436565b62000402565b9050808382526020820190508260005b85811015620003145781518501620002f9888262000390565b845260208401935060208301925050600181019050620002e0565b5050509392505050565b6000620003356200032f8462000465565b62000402565b9050828152602081018484840111156200034e57600080fd5b6200035b848285620004a2565b509392505050565b600082601f8301126200037557600080fd5b815162000387848260208601620002b9565b91505092915050565b600082601f830112620003a257600080fd5b8151620003b48482602086016200031e565b91505092915050565b600060208284031215620003d057600080fd5b600082015167ffffffffffffffff811115620003eb57600080fd5b620003f98482850162000363565b91505092915050565b6000604051905081810181811067ffffffffffffffff821117156200042c576200042b620005ba565b5b8060405250919050565b600067ffffffffffffffff821115620004545762000453620005ba565b5b602082029050602081019050919050565b600067ffffffffffffffff821115620004835762000482620005ba565b5b601f19601f8301169050602081019050919050565b6000819050919050565b60005b83811015620004c2578082015181840152602081019050620004a5565b83811115620004d2576000848401525b50505050565b60006002820490506001821680620004f157607f821691505b602082108114156200050857620005076200058b565b5b50919050565b60006200051b8262000498565b91507fffffffffffffffffffffffffffffffffffffffffffffffffffffffffffffffff8214156200055157620005506200055c565b5b600182019050919050565b7f4e487b7100000000000000000000000000000000000000000000000000000000600052601160045260246000fd5b7f4e487b7100000000000000000000000000000000000000000000000000000000600052602260045260246000fd5b7f4e487b7100000000000000000000000000000000000000000000000000000000600052604160045260246000fd5b61151280620005f96000396000f3fe608060405234801561001057600080fd5b50600436106100885760003560e01c8063a3ec138d1161005b578063a3ec138d14610102578063a999e56214610134578063b922394614610150578063c19d93fb1461015a57610088565b80630121b93f1461008d5780632e4176cf146100a95780633477ee2e146100c75780634c0a6af0146100f8575b600080fd5b6100a760048036038101906100a29190610dc6565b610178565b005b6100b16103f4565b6040516100be919061100a565b60405180910390f35b6100e160048036038101906100dc9190610dc6565b610418565b6040516100ef929190611062565b60405180910390f35b6101006104d4565b005b61011c60048036038101906101179190610d5c565b6106a3565b60405161012b9392919061116d565b60405180910390f35b61014e60048036038101906101499190610d85565b6106da565b005b6101586109be565b005b610162610b8d565b60405161016f9190611025565b60405180910390f35b600160028111156101b2577f4e487b7100000000000000000000000000000000000000000000000000000000600052602160045260246000fd5b600360009054906101000a900460ff1660028111156101fa577f4e487b7100000000000000000000000000000000000000000000000000000000600052602160045260246000fd5b1461023a576040517f08c379a000000000000000000000000000000000000000000000000000000000815260040161023190611132565b60405180910390fd5b6000600160003373ffffffffffffffffffffffffffffffffffffffff1673ffffffffffffffffffffffffffffffffffffffff168152602001908152602001600020905060008160000154116102c4576040517f08c379a00000000000000000000000000000000000000000000000000000000081526004016102bb90611092565b60405180910390fd5b8060010160009054906101000a900460ff1615610316576040517f08c379a000000000000000000000000000000000000000000000000000000000815260040161030d906110b2565b60405180910390fd5b60018160010160006101000a81548160ff02191690831515021790555081816002018190555080600001546002838154811061037b577f4e487b7100000000000000000000000000000000000000000000000000000000600052603260045260246000fd5b9060005260206000209060020201600101600082825461039b919061124d565b925050819055503373ffffffffffffffffffffffffffffffffffffffff167f4d99b957a2bc29a30ebd96a7be8e68fe50a3c701db28a91436490b7d53870ca4836040516103e89190611152565b60405180910390a25050565b60008054906101000a900473ffffffffffffffffffffffffffffffffffffffff1681565b6002818154811061042857600080fd5b906000526020600020906002020160009150905080600001805461044b90611352565b80601f016020809104026020016040519081016040528092919081815260200182805461047790611352565b80156104c45780601f10610499576101008083540402835291602001916104c4565b820191906000526020600020905b8154815290600101906020018083116104a757829003601f168201915b5050505050908060010154905082565b60008054906101000a900473ffffffffffffffffffffffffffffffffffffffff1673ffffffffffffffffffffffffffffffffffffffff163373ffffffffffffffffffffffffffffffffffffffff1614610562576040517f08c379a0000000000000000000000000000000000000000000000000000000008152600401610559906110d2565b60405180910390fd5b6000600281111561059c577f4e487b7100000000000000000000000000000000000000000000000000000000600052602160045260246000fd5b600360009054906101000a900460ff1660028111156105e4577f4e487b7100000000000000000000000000000000000000000000000000000000600052602160045260246000fd5b14610624576040517f08c379a000000000000000000000000000000000000000000000000000000000815260040161061b906110f2565b60405180910390fd5b6001600360006101000a81548160ff02191690836002811115610670577f4e487b7100000000000000000000000000000000000000000000000000000000600052602160045260246000fd5b02179055507f1ad0a1ab13806f2b802415fa49a77ed3f633af31788e4a0645de1fc90c2a0da460405160405180910390a1565b60016020528060005260406000206000915090508060000154908060010160009054906101000a900460ff16908060020154905083565b600280811115610713577f4e487b7100000000000000000000000000000000000000000000000000000000600052602160045260246000fd5b600360009054906101000a900460ff16600281111561075b577f4e487b7100000000000000000000000000000000000000000000000000000000600052602160045260246000fd5b1461079b576040517f08c379a000000000000000000000000000000000000000000000000000000000815260040161079290611112565b60405180910390fd5b60008054906101000a900473ffffffffffffffffffffffffffffffffffffffff1673ffffffffffffffffffffffffffffffffffffffff163373ffffffffffffffffffffffffffffffffffffffff1614610829576040517f08c379a0000000000000000000000000000000000000000000000000000000008152600401610820906110d2565b60405180910390fd5b6000600360006101000a81548160ff02191690836002811115610875577f4e487b7100000000000000000000000000000000000000000000000000000000600052602160045260246000fd5b021790555060005b81518110156109ba57600260405180604001604052808484815181106108cc577f4e487b7100000000000000000000000000000000000000000000000000000000600052603260045260246000fd5b60200260200101518152602001600081525090806001815401808255809150506001900390600052602060002090600202016000909190919091506000820151816000019080519060200190610923929190610ba0565b506020820151816001015550507ff29562dad1599aea0ebb142466120aab326d5efa8f839df82a9c064bf78e893882828151811061098a577f4e487b7100000000000000000000000000000000000000000000000000000000600052603260045260246000fd5b602002602001015160405161099f9190611040565b60405180910390a180806109b290611384565b91505061087d565b5050565b60008054906101000a900473ffffffffffffffffffffffffffffffffffffffff1673ffffffffffffffffffffffffffffffffffffffff163373ffffffffffffffffffffffffffffffffffffffff1614610a4c576040517f08c379a0000000000000000000000000000000000000000000000000000000008152600401610a43906110d2565b60405180910390fd5b60016002811115610a86577f4e487b7100000000000000000000000000000000000000000000000000000000600052602160045260246000fd5b600360009054906101000a900460ff166002811115610ace577f4e487b7100000000000000000000000000000000000000000000000000000000600052602160045260246000fd5b14610b0e576040517f08c379a0000000000000000000000000000000000000000000000000000000008152600401610b0590611132565b60405180910390fd5b6002600360006101000a81548160ff02191690836002811115610b5a577f4e487b7100000000000000000000000000000000000000000000000000000000600052602160045260246000fd5b02179055507f58a587d218b5732ea4aa95fdc9c2449c467d58b36fc81f672e3f5db07d49e98960405160405180910390a1565b600360009054906101000a900460ff1681565b828054610bac90611352565b90600052602060002090601f016020900481019282610bce5760008555610c15565b82601f10610be757805160ff1916838001178555610c15565b82800160010185558215610c15579182015b82811115610c14578251825591602001919060010190610bf9565b5b509050610c229190610c26565b5090565b5b80821115610c3f576000816000905550600101610c27565b5090565b6000610c56610c51846111d5565b6111a4565b9050808382526020820190508260005b85811015610c965781358501610c7c8882610d1d565b845260208401935060208301925050600181019050610c66565b5050509392505050565b6000610cb3610cae84611201565b6111a4565b905082815260208101848484011115610ccb57600080fd5b610cd6848285611310565b509392505050565b600081359050610ced816114ae565b92915050565b600082601f830112610d0457600080fd5b8135610d14848260208601610c43565b91505092915050565b600082601f830112610d2e57600080fd5b8135610d3e848260208601610ca0565b91505092915050565b600081359050610d56816114c5565b92915050565b600060208284031215610d6e57600080fd5b6000610d7c84828501610cde565b91505092915050565b600060208284031215610d9757600080fd5b600082013567ffffffffffffffff811115610db157600080fd5b610dbd84828501610cf3565b91505092915050565b600060208284031215610dd857600080fd5b6000610de684828501610d47565b91505092915050565b610df8816112a3565b82525050565b610e07816112b5565b82525050565b610e16816112fe565b82525050565b6000610e2782611231565b610e31818561123c565b9350610e4181856020860161131f565b610e4a81611489565b840191505092915050565b6000610e6260148361123c565b91507f486173206e6f20726967687420746f20766f74650000000000000000000000006000830152602082019050919050565b6000610ea2600d8361123c565b91507f416c726561647920766f746564000000000000000000000000000000000000006000830152602082019050919050565b6000610ee2602d8361123c565b91507f4f6e6c79206368616972706572736f6e2063616e20737461727420616e64206560008301527f6e642074686520766f74696e67000000000000000000000000000000000000006020830152604082019050919050565b6000610f48601b8361123c565b91507f4974206d75737420626520696e204372656174656420737461746500000000006000830152602082019050919050565b6000610f8860198361123c565b91507f4974206d75737420626520696e20456e646564207374617465000000000000006000830152602082019050919050565b6000610fc8601a8361123c565b91507f4974206d75737420626520696e20566f74696e672073746174650000000000006000830152602082019050919050565b611004816112f4565b82525050565b600060208201905061101f6000830184610def565b92915050565b600060208201905061103a6000830184610e0d565b92915050565b6000602082019050818103600083015261105a8184610e1c565b905092915050565b6000604082019050818103600083015261107c8185610e1c565b905061108b6020830184610ffb565b9392505050565b600060208201905081810360008301526110ab81610e55565b9050919050565b600060208201905081810360008301526110cb81610e95565b9050919050565b600060208201905081810360008301526110eb81610ed5565b9050919050565b6000602082019050818103600083015261110b81610f3b565b9050919050565b6000602082019050818103600083015261112b81610f7b565b9050919050565b6000602082019050818103600083015261114b81610fbb565b9050919050565b60006020820190506111676000830184610ffb565b92915050565b60006060820190506111826000830186610ffb565b61118f6020830185610dfe565b61119c6040830184610ffb565b949350505050565b6000604051905081810181811067ffffffffffffffff821117156111cb576111ca61145a565b5b8060405250919050565b600067ffffffffffffffff8211156111f0576111ef61145a565b5b602082029050602081019050919050565b600067ffffffffffffffff82111561121c5761121b61145a565b5b601f19601f8301169050602081019050919050565b600081519050919050565b600082825260208201905092915050565b6000611258826112f4565b9150611263836112f4565b9250827fffffffffffffffffffffffffffffffffffffffffffffffffffffffffffffffff03821115611298576112976113cd565b5b828201905092915050565b60006112ae826112d4565b9050919050565b60008115159050919050565b60008190506112cf8261149a565b919050565b600073ffffffffffffffffffffffffffffffffffffffff82169050919050565b6000819050919050565b6000611309826112c1565b9050919050565b82818337600083830152505050565b60005b8381101561133d578082015181840152602081019050611322565b8381111561134c576000848401525b50505050565b6000600282049050600182168061136a57607f821691505b6020821081141561137e5761137d61142b565b5b50919050565b600061138f826112f4565b91507fffffffffffffffffffffffffffffffffffffffffffffffffffffffffffffffff8214156113c2576113c16113cd565b5b600182019050919050565b7f4e487b7100000000000000000000000000000000000000000000000000000000600052601160045260246000fd5b7f4e487b7100000000000000000000000000000000000000000000000000000000600052602160045260246000fd5b7f4e487b7100000000000000000000000000000000000000000000000000000000600052602260045260246000fd5b7f4e487b7100000000000000000000000000000000000000000000000000000000600052604160045260246000fd5b6000601f19601f8301169050919050565b600381106114ab576114aa6113fc565b5b50565b6114b7816112a3565b81146114c257600080fd5b50565b6114ce816112f4565b81146114d957600080fd5b5056fea264697066735822122049b50d5e11c03d60e4d25cbaf42db5a6ae5f2447784b8c4a97fa47b59b34c8ae64736f6c63430008000033",
  "immutableReferences": {},
  "source": "// contracts/Ballot.sol\r\npragma solidity >=0.7.0 <0.9.0;\r\npragma abicoder v2;\r\n\r\ncontract Ballot {\r\n    struct Voter {\r\n        uint weight;\r\n        bool voted;\r\n        uint vote;\r\n    }\r\n\r\n    struct Candidate {\r\n        string name;\r\n        uint voteCount;\r\n    }\r\n\r\n    address public chairperson;\r\n    mapping(address => Voter) public voters;\r\n    Candidate[] public candidates;\r\n\r\n    enum State {\r\n        Created,\r\n        Voting,\r\n        Ended\r\n    }\r\n    State public state;\r\n\r\n    event CandidateAdded(string name);\r\n    event VoteStarted();\r\n    event VoteEnded();\r\n    event Voted(address indexed voter, uint candidate);\r\n\r\n    constructor(string[] memory candidateNames) {\r\n        chairperson = msg.sender;\r\n        voters[chairperson].weight = 1;\r\n        state = State.Created;\r\n\r\n        for (uint i = 0; i < candidateNames.length; i++) {\r\n            candidates.push(Candidate({name: candidateNames[i], voteCount: 0}));\r\n        }\r\n    }\r\n\r\n    modifier onlySmartContractOwner() {\r\n        require(\r\n            msg.sender == chairperson,\r\n            \"Only chairperson can start and end the voting\"\r\n        );\r\n        _;\r\n    }\r\n\r\n    modifier CreatedState() {\r\n        require(state == State.Created, \"It must be in Created state\");\r\n        _;\r\n    }\r\n\r\n    modifier VotingState() {\r\n        require(state == State.Voting, \"It must be in Voting state\");\r\n        _;\r\n    }\r\n\r\n    modifier EndedState() {\r\n        require(state == State.Ended, \"It must be in Ended state\");\r\n        _;\r\n    }\r\n\r\n    function addCandidates(\r\n        string[] memory candidateNames\r\n    ) public EndedState onlySmartContractOwner {\r\n        state = State.Created;\r\n        for (uint i = 0; i < candidateNames.length; i++) {\r\n            candidates.push(Candidate({name: candidateNames[i], voteCount: 0}));\r\n            emit CandidateAdded(candidateNames[i]);\r\n        }\r\n    }\r\n\r\n    function startVote() public onlySmartContractOwner CreatedState {\r\n        state = State.Voting;\r\n        emit VoteStarted();\r\n    }\r\n\r\n    function endVote() public onlySmartContractOwner VotingState {\r\n        state = State.Ended;\r\n        emit VoteEnded();\r\n    }\r\n\r\n    function vote(uint candidateIndex) public VotingState {\r\n        Voter storage sender = voters[msg.sender];\r\n        require(sender.weight > 0, \"Has no right to vote\");\r\n        require(!sender.voted, \"Already voted\");\r\n        sender.voted = true;\r\n        sender.vote = candidateIndex;\r\n\r\n        candidates[candidateIndex].voteCount += sender.weight;\r\n        emit Voted(msg.sender, candidateIndex);\r\n    }\r\n}\r\n",
  "sourcePath": "E:\\Naman Karki\\6th awm\\e-gov\\project\\contracts\\Ballot.sol",
  "compiler": {
    "name": "solc",
    "version": "0.8.0+commit.c7dfd78e.Emscripten.clang"
  },
  "schemaVersion": "3.4.16",
  "updatedAt": "2024-05-29T04:39:28.489Z",
  "networkType": "ethereum",
  "devdoc": {
    "kind": "dev",
    "methods": {},
    "version": 1
  },
  "userdoc": {
    "kind": "user",
    "methods": {},
    "version": 1
  }
}